:060000000A128A110C280F
:10000800FE00030EF1000A08F2000A128A11D22F2C
:100018000A128A110F2883120313E201E301E40193
:10002800E501E601E701E801E901EA0183010A12B5
:100038008A11752E8312031329088039B300290801
:10004800AE002E07B900A81F2A282B282C283914FF
:1000580039080319302831284028390A031D352862
:1000680036283E280030A9000030A8000030A7003C
:100078000030A600A81748280030A9000030A800C2
:100088000030A7000030A6002D088039AE002E08E9
:10009800B3062D08AE002E07B800AC1F542855280B
:1000A80056283814380803195A285B286A28380A49
:1000B800031D5F28602868280030AD000030AC00C0
:1000C8000030AB000030AA00AC1772280030AD0039
:1000D8000030AC000030AB000030AA00380803192B
:1000E800762877287C283908031D7B287C288528D2
:1000F8000030A9000030A8000030A7000030A6009A
:10010800622B2608F3002C080A128A157E270A1289
:100118008A11740883120313BF007308BE003E08D7
:10012800AE00AF01B001B1013108B7003008B60028
:100138002F08B5002E08B4003F08AE00AF01B0018B
:10014800B1013108BD003008BC002F08BB002E08E3
:10015800BA002708F3002B080A128A157E270A120C
:100168008A11740883120313BF007308BE003E0887
:10017800AE00AF01B001B1012E08B4072F0803117A
:100188000318013E0319C928B507300803110318DD
:10019800013E0319D028B607310803110318013EA0
:1001A8000319D728B7073F08AE00AF01B001B10166
:1001B8002E08BA072F0803110318013E0319E52872
:1001C800BB07300803110318013E0319EC28BC07CC
:1001D800310803110318013E0319F328BD07280845
:1001E800F3002A080A128A157E270A128A1174084F
:1001F80083120313BF007308BE003E08AE00AF01B0
:10020800B001B1012E08B4072F0803110318013EED
:1002180003190F29B507300803110318013E031904
:100228001629B607310803110318013E03191D29C1
:10023800B7073F08AE00AF01B001B1012E08BA07F9
:100248002F0803110318013E03192B29BB07300897
:1002580003110318013E03193229BC0731080311A1
:100268000318013E03193929BD070830AE000310F1
:10027800B40DB50DB60DB70DAE0B3B292708F3002D
:100288002A080A128A157E270A128A11740883120C
:100298000313BF007308BE003E08AE003F08AF005E
:1002A800B001B1012E08B4072F0803110318013E4D
:1002B80003195F29B507300803110318013E031914
:1002C8006629B607310803110318013E03196D2981
:1002D800B7072608F3002B080A128A157E270A1288
:1002E8008A11740883120313BF007308BE003E0806
:1002F800AE003F08AF00B001B1012E08B4072F08C7
:1003080003110318013E03198A29B50730080311A0
:100318000318013E03199129B60731080311031880
:10032800013E03199829B7070830AE000310B40D31
:10033800B50DB60DB70DAE0B9A292608F3002A089D
:100348000A128A157E270A128A1174088312031367
:10035800BF007308BE003E08AE003F08AF00B00102
:10036800B1012E08B4072F0803110318013E031921
:10037800BE29B507300803110318013E0319C52922
:10038800B607310803110318013E0319CC29B70732
:100398002708F3002C080A128A157E270A128A11E8
:1003A800740883120313BF007308BE003E08AE0032
:1003B8003F08AF00B001B1012E08BA072F0803119A
:1003C8000318013E0319E929BB0730080311031874
:1003D800013E0319F029BC07310803110318013E37
:1003E8000319F729BD072808F3002B080A128A15F4
:1003F8007E270A128A11740883120313BF00730838
:10040800BE003E08AE003F08AF00B001B1012E08A3
:10041800BA072F0803110318013E0319142ABB0752
:10042800300803110318013E03191B2ABC073108C1
:1004380003110318013E0319222ABD072808F300F7
:100448002C080A128A157E270A128A117408831248
:100458000313BF007308BE003E08AE003F08AF009C
:10046800B001B10108300310AE0DAF0DB00DB10DE4
:10047800FF3E031D372A2E08BA072F080311031859
:10048800013E0319482ABB07300803110318013E2F
:1004980003194F2ABC07310803110318013E031939
:1004A800562ABD073408AE003508AF003608B0003C
:1004B8003708B10018300310B10CB00CAF0CAE0CFB
:1004C800FF3E031D5F2A2E08BA072F0803110318E1
:1004D800013E0319702ABB07300803110318013EB7
:1004E8000319772ABC07310803110318013E0319C1
:1004F8007E2ABD070830AE000310B40DB50DB60D49
:10050800B70DAE0B802A39083807AE00AF01AF0D22
:100518002E08823EBE002F080318013EFF3EBF0092
:10052800B22A0130AE000310BA0DBB0DBC0DBD0DD3
:10053800AE0B972AB71FA12AA22AA32A3A14013080
:10054800AE000310B40DB50DB60DB70DAE0BA52A50
:10055800FF30BE070318BF0AFF30BF07BC1FB52A0C
:10056800B62A952AB801B71FBA2ABB2AD72AFF305C
:100578003405AE00FF303505AF00FF303605B0005A
:100588007F303705B100310830042F042E040319D9
:10059800CE2ACF2AD22AB801B80AD72A3A1CD52A95
:1005A800D62AD72ACF2A38080319DB2ADC2A0D2BAA
:1005B8000130BA07003003180130BB0700300318B8
:1005C8000130BC07003003180130BD073D1CED2A7F
:1005D800EE2A0D2B3A08AE003B08AF003C08B000ED
:1005E8003D08B1000130B200310DB10CB00CAF0CB8
:1005F800AE0CB20BF82A3108BD003008BC002F0839
:10060800BB002E08BA000130BE070318BF0A00302D
:10061800BF073F08803AFF0080307F02031D162B7A
:10062800FF303E02031C192B1A2B252B7F30831217
:100638000313BD008030BC000030BB000030BA009E
:10064800562B831203133F08803AFF0080307F0245
:10065800031D302B01303E020318332B342B402B63
:10066800003083120313BD000030BC000030BB0013
:100678000030BA00B301562B831203133E08B900A9
:10068800FF30BA05FF30BB057F30BC050030BD0523
:10069800391C4F2B502B512BBC173908AE000310B7
:1006A8002E0CBD003308AE002E08BD043D08A9007D
:1006B8003C08A8003B08A7003A08A60008008312D7
:1006C800031343088039D0004308C8004807D20004
:1006D800C21F6F2B702B712B521452080319752BE4
:1006E800762B862B520A031D7A2B7B2B832B00300B
:1006F800C3000030C2000030C1000030C000C21783
:10070800C3018E2B0030C3000030C2000030C1008E
:100718000030C00047088039D1005108500603193D
:10072800962B972B982B50174708C8004807D100DD
:10073800C61F9F2BA02BA12B511451080319A52BC1
:10074800A62BB62B510A031DAA2BAB2BB32B0030BB
:10075800C7000030C6000030C5000030C400C6170E
:10076800C701BE2B0030C7000030C6000030C500EE
:100778000030C400520851020318C32BC42BEA2BC3
:10078800501FC72BC82BCC2B8030C8004808D00678
:100798005208D3005108D2005308D1004008D300B2
:1007A8004408C0005308C4004108D3004508C100EC
:1007B8005308C5004208D3004608C2005308C600C3
:1007C8004308D3004708C3005308C700D3015108A2
:1007D800C800C9014908CB0052084802CA00031CD6
:1007E800CB034B08803AFF0080307F02031DFE2BAD
:1007F8001A304A02031C012C022C392C83120313D1
:100808004308420441044004031D0B2C0D2C013005
:100818000E2C0030D3000030C3000030C20000307E
:10082800C1000030C0005108D200412C531C1D2CBF
:100838001E2C252C5308C8000310480C0138D3007F
:10084800272C0310D30C401C2A2C2B2C2C2CD31710
:100858000130C800430DC30CC20CC10CC00CC80B3E
:100868002E2C0130C8004808D20783120313510800
:100878005202031C402C412C1A2C501B442C452C92
:100888008E2C5208031D492C4A2C532C0030C300CF
:100898000030C2000030C1000030C000BA2D44084A
:1008A800C007450803110318013E03195C2CC10752
:1008B800460803110318013E0319632CC2074708B1
:1008C80003110318013E03196A2CC307431C6D2C3E
:1008D8006E2C422D531C712C722C792C5308C80095
:1008E8000310480C0138D3007B2C0310D30C401C98
:1008F8007E2C7F2C802CD3170130C800430DC30CED
:10090800C20CC10CC00CC80B822C0130C8004808AE
:10091800D207422D4308803AFF004708803A7F02F9
:10092800031DA02C46084202031DA02C45084102C5
:10093800031DA02C440840020318A32CA42CFC2C53
:10094800FF30C800FF30C900FF30CA00FF30CB00BD
:100958004408CC004508CD004608CE004708CF0023
:100968004008CC024108031C410FBB2CBC2CCD0213
:100978004208031C420FC12CC22CCE024308031CA0
:10098800430FC72CC82CCF024C08C8074D080318C2
:100998004D0FCF2CD02CC9074E0803184E0FD52C5D
:1009A800D62CCA074F0803184F0ACB074B08C300B9
:1009B8004A08C2004908C1004808C0008030C80081
:1009C8004808D006D309D30A5308031DEC2CED2C94
:1009D8000A2D0130C007003003180130C10700306C
:1009E80003180130C207003003180130C3070A2D6D
:1009F8004408C0024508031C450FC1024608031CF1
:100A0800460FC2024708031C470FC30243084204AB
:100A180041044004031D112D122D3E2D5308031DC2
:100A2800162D172D3E2D0030C3000030C2000030B7
:100A3800C1000030C000BA2D0130C8000310C00D3D
:100A4800C10DC20DC30DC80B222DD31F2C2D2D2D6A
:100A58002E2D4014531C312D322D352D0314D30D5A
:100A6800372D0310D30D520803193B2D3C2D3E2D75
:100A78000130D202C21F412D422D202DD101D31F9A
:100A8800462D472D552D53087F3903194C2D4D2DD3
:100A9800502DD101D10A552D401C532D542D552DC3
:100AA8004D2D51080319592D5A2D8E2D0130C0078F
:100AB800003003180130C107003003180130C207A5
:100AC800003003180130C307431C6B2D6C2D8E2D8D
:100AD8004008C8004108C9004208CA004308CB00C2
:100AE8000130CC004B0DCB0CCA0CC90CC80CCC0B7C
:100AF800762D4B08C3004A08C2004908C1004808BF
:100B0800C000520A0319892D8A2D8E2D0130C80084
:100B18004808D207520A0319922D932D982D52088E
:100B2800031D972D982DA62D0030C3000030C2005C
:100B38000030C1000030C0005208031DA42DA52DAF
:100B4800A62DD001521CA92DAA2DAC2DC217B02D4F
:100B58007F30C8004808C2055208C8000310480C76
:100B6800C300D01FB82DB92DBA2DC31708008312A2
:100B78000313A00020080319C22DC32DD72DF61F7B
:100B8800C62DC72DD72D7309A2007409A3007509B6
:100B9800A4007609A500A20A0319A30A0319A40A46
:100BA8000319A50ADF2D7608A5007508A4007408A6
:100BB800A3007308A2007608750474047304031D67
:100BC800E62DE72DF02D0030F6000030F50000305E
:100BD800F4000030F300742E9630A100002E01308E
:100BE800F7007708A10701300310A50CA40CA30C8B
:100BF800A20CFF3E031DF82DFE302505031D052E12
:100C0800062EF32D222E0130F7007708A1070130B8
:100C1800A207003003180130A30700300318013081
:100C2800A407003003180130A50701300310A50CF4
:100C3800A40CA30CA20CFF3E031D1A2EFF302505A1
:100C4800031D272E282E072E342E0130A102013035
:100C5800F7000310A20DA30DA40DA50DF70B2D2E63
:100C6800A41B372E382E3E2E0230210203183D2EAB
:100C78003E2E292E2118412E422E4A2EFF30A20543
:100C8800FF30A3057F30A405FF30A5050310A10C94
:100C98002108F700F801F901FA0118300310F70DDF
:100CA800F80DF90DFA0DFF3E031D522E7708A20428
:100CB8007808A3047908A4047A08A504200803196D
:100CC800662E672E6C2EF61F6A2E6B2E6C2EA517BD
:100CD8002508F6002408F5002308F4002208F3008C
:100CE80008000A128A15D3270A128A110A128A15CD
:100CF800A7270A128A110A128A1559270A128A1175
:100D080083120313EA01831203131F08C33904383B
:100D18009F00033083120313E000E00B912E83122F
:100D280003139F149F18992E9A2E962E1E08E000E2
:100D3800E1016008E8006108E9006908DF00680867
:100D4800DE000A128A117D270A128A118312031300
:100D580062089500033083120313E000E00BB22E03
:100D6800831203131F08C33908389F000330831206
:100D78000313E000E00BBE2E831203139F149F1889
:100D8800C62EC72EC32E1E08E000E1016008E6004B
:100D98006108E7006708DF006608DE000A128A11AA
:100DA8007D270A128A118312031362089B000330FD
:100DB80083120313E000E00BDF2E831203131F08D6
:100DC800C3390C389F00033083120313E000E00B93
:100DD800EB2E831203139F149F18F32EF42EF02E7C
:100DE8001E08E000E1016008E4006108E500033046
:100DF80083120313E000E00BFF2E872E0A128A11DC
:100E08000C28031083120313560D570DDD005D08DF
:100E1800031D0F2F102F192F0030D7000030D600D8
:100E28000030D5000030D4007C2F5408D800550875
:100E3800D9005608DA005708DB001F300310DB0C16
:100E4800DA0CD90CD80CFF3E031D222F5808DC0001
:100E5800D617FF30D405FF30D505FF30D605003052
:100E6800D7059630DD02DD1F3A2F3B2F552F5D0841
:100E7800803A973E0318412F422F432F102F0130FD
:100E88000310D70CD60CD50CD40CFF3E031D442FF1
:100E98000130D8005808DD07031D532F542F432F66
:100EA8006C2F20305D02031C5A2F5B2F672F102FE9
:100EB8000130D8000310D40DD50DD60DD70DD80BA1
:100EC8005E2F0130DD025D08031D6B2F6C2F5C2F38
:100ED8005C080319702F712F7C2FD409D509D60906
:100EE800D709D40A0319D50A0319D60A0319D70A48
:100EF8000800831203135E08F3005F08F400003053
:100F0800F41BFF30F500F60001300A128A11BB25E8
:100F18000A128A11760883120313AD007508AC0013
:100F28007408AB007308AA003D30A9006030A8001F
:100F3800E030A700E130A6000A128A111E200A122A
:100F48008A11831203132908C7002808C600270836
:100F5800C5002608C4004030C300E030C20000309D
:100F6800C1000030C0000A128A1163230A128A11D4
:100F7800831203134308D7004208D6004108D5005E
:100F88004008D4000A128A1105270A128A1183120E
:100F980003135508E3005408E20008008312031302
:100FA8000C1FD72FD82FDA2F86170C130B1DDD2F08
:100FB800DE2FF92F0130F0007008EA076508803A43
:100FC800F00080307002031DEB2F6A086402031CD6
:100FD800EE2FEF2FF32F831203138517F62F8312AB
:100FE80003138513F03081000B1172088A00710E0B
:080FF8008300FE0E7E0E0900CD
:101EB20083160313071587149B3092003F30831259
:101EC200031397051708F0390C3897000F309D045B
:101ED200303097049D161D160B3095000B309B0079
:101EE2008C100330920412158C1C782F792F752FC9
:101EF2008316031307118710080083120313A4002B
:101F0200A001A1017308F500F6017508A200760888
:101F1200A300241C8D2F8E2F942F2208A0070318B4
:101F2200A10A2308A10701300310A20DA30DFF3E51
:101F3200031D952F0310A40C2408031DA12FA22F0B
:101F42008A2F2108F4002008F300080083160313E7
:101F520005148316031708148316031385148316B6
:101F62000317881483160313051583160317081520
:101F7200831203131F179F13831603131F129F123B
:101F8200831203131F119F111F129F128316031333
:101F92009F13831203131F140330F300F30BCF2F8D
:101FA200D22F0800831603178901831603138513A2
:101FB2008601870188018901831203138513860133
:101FC2008701880189018B170B17831603130F08EA
:101FD2008F3930388F000F140C17831203130C1330
:101FE20083160313811281110108F8390338810025
:0E1FF200F0308312031381000B170B1108004F
:08400000FF3FFF3FFF3FFF3FC0
:04400E00D420FF3F7C
:00000001FF
